{
  "_format": "hh-sol-artifact-1",
  "contractName": "MyGHNFT",
  "sourceName": "contracts/MyGHNFT.sol",
  "abi": [
    {
      "inputs": [],
      "stateMutability": "nonpayable",
      "type": "constructor"
    },
    {
      "anonymous": false,
      "inputs": [
        {
          "indexed": true,
          "internalType": "address",
          "name": "owner",
          "type": "address"
        },
        {
          "indexed": true,
          "internalType": "address",
          "name": "approved",
          "type": "address"
        },
        {
          "indexed": true,
          "internalType": "uint256",
          "name": "tokenId",
          "type": "uint256"
        }
      ],
      "name": "Approval",
      "type": "event"
    },
    {
      "anonymous": false,
      "inputs": [
        {
          "indexed": true,
          "internalType": "address",
          "name": "owner",
          "type": "address"
        },
        {
          "indexed": true,
          "internalType": "address",
          "name": "operator",
          "type": "address"
        },
        {
          "indexed": false,
          "internalType": "bool",
          "name": "approved",
          "type": "bool"
        }
      ],
      "name": "ApprovalForAll",
      "type": "event"
    },
    {
      "anonymous": false,
      "inputs": [
        {
          "indexed": false,
          "internalType": "address",
          "name": "sender",
          "type": "address"
        },
        {
          "indexed": false,
          "internalType": "uint256",
          "name": "tokenId",
          "type": "uint256"
        }
      ],
      "name": "NewGHNFTminted",
      "type": "event"
    },
    {
      "anonymous": false,
      "inputs": [
        {
          "indexed": true,
          "internalType": "address",
          "name": "from",
          "type": "address"
        },
        {
          "indexed": true,
          "internalType": "address",
          "name": "to",
          "type": "address"
        },
        {
          "indexed": true,
          "internalType": "uint256",
          "name": "tokenId",
          "type": "uint256"
        }
      ],
      "name": "Transfer",
      "type": "event"
    },
    {
      "inputs": [
        {
          "internalType": "address",
          "name": "to",
          "type": "address"
        },
        {
          "internalType": "uint256",
          "name": "tokenId",
          "type": "uint256"
        }
      ],
      "name": "approve",
      "outputs": [],
      "stateMutability": "nonpayable",
      "type": "function"
    },
    {
      "inputs": [
        {
          "internalType": "address",
          "name": "owner",
          "type": "address"
        }
      ],
      "name": "balanceOf",
      "outputs": [
        {
          "internalType": "uint256",
          "name": "",
          "type": "uint256"
        }
      ],
      "stateMutability": "view",
      "type": "function"
    },
    {
      "inputs": [],
      "name": "forgeGHNFT",
      "outputs": [],
      "stateMutability": "nonpayable",
      "type": "function"
    },
    {
      "inputs": [
        {
          "internalType": "uint256",
          "name": "tokenId",
          "type": "uint256"
        }
      ],
      "name": "getApproved",
      "outputs": [
        {
          "internalType": "address",
          "name": "",
          "type": "address"
        }
      ],
      "stateMutability": "view",
      "type": "function"
    },
    {
      "inputs": [
        {
          "internalType": "address",
          "name": "owner",
          "type": "address"
        },
        {
          "internalType": "address",
          "name": "operator",
          "type": "address"
        }
      ],
      "name": "isApprovedForAll",
      "outputs": [
        {
          "internalType": "bool",
          "name": "",
          "type": "bool"
        }
      ],
      "stateMutability": "view",
      "type": "function"
    },
    {
      "inputs": [],
      "name": "name",
      "outputs": [
        {
          "internalType": "string",
          "name": "",
          "type": "string"
        }
      ],
      "stateMutability": "view",
      "type": "function"
    },
    {
      "inputs": [
        {
          "internalType": "uint256",
          "name": "tokenId",
          "type": "uint256"
        }
      ],
      "name": "ownerOf",
      "outputs": [
        {
          "internalType": "address",
          "name": "",
          "type": "address"
        }
      ],
      "stateMutability": "view",
      "type": "function"
    },
    {
      "inputs": [
        {
          "internalType": "address",
          "name": "from",
          "type": "address"
        },
        {
          "internalType": "address",
          "name": "to",
          "type": "address"
        },
        {
          "internalType": "uint256",
          "name": "tokenId",
          "type": "uint256"
        }
      ],
      "name": "safeTransferFrom",
      "outputs": [],
      "stateMutability": "nonpayable",
      "type": "function"
    },
    {
      "inputs": [
        {
          "internalType": "address",
          "name": "from",
          "type": "address"
        },
        {
          "internalType": "address",
          "name": "to",
          "type": "address"
        },
        {
          "internalType": "uint256",
          "name": "tokenId",
          "type": "uint256"
        },
        {
          "internalType": "bytes",
          "name": "_data",
          "type": "bytes"
        }
      ],
      "name": "safeTransferFrom",
      "outputs": [],
      "stateMutability": "nonpayable",
      "type": "function"
    },
    {
      "inputs": [
        {
          "internalType": "address",
          "name": "operator",
          "type": "address"
        },
        {
          "internalType": "bool",
          "name": "approved",
          "type": "bool"
        }
      ],
      "name": "setApprovalForAll",
      "outputs": [],
      "stateMutability": "nonpayable",
      "type": "function"
    },
    {
      "inputs": [
        {
          "internalType": "bytes4",
          "name": "interfaceId",
          "type": "bytes4"
        }
      ],
      "name": "supportsInterface",
      "outputs": [
        {
          "internalType": "bool",
          "name": "",
          "type": "bool"
        }
      ],
      "stateMutability": "view",
      "type": "function"
    },
    {
      "inputs": [],
      "name": "symbol",
      "outputs": [
        {
          "internalType": "string",
          "name": "",
          "type": "string"
        }
      ],
      "stateMutability": "view",
      "type": "function"
    },
    {
      "inputs": [
        {
          "internalType": "uint256",
          "name": "tokenId",
          "type": "uint256"
        }
      ],
      "name": "tokenURI",
      "outputs": [
        {
          "internalType": "string",
          "name": "",
          "type": "string"
        }
      ],
      "stateMutability": "view",
      "type": "function"
    },
    {
      "inputs": [
        {
          "internalType": "address",
          "name": "from",
          "type": "address"
        },
        {
          "internalType": "address",
          "name": "to",
          "type": "address"
        },
        {
          "internalType": "uint256",
          "name": "tokenId",
          "type": "uint256"
        }
      ],
      "name": "transferFrom",
      "outputs": [],
      "stateMutability": "nonpayable",
      "type": "function"
    }
  ],
  "bytecode": "0x608060405260405180610140016040528061011181526020016200362b6101119139600890805190602001906200003892919062000204565b503480156200004657600080fd5b506040518060400160405280600581526020017f4748414e410000000000000000000000000000000000000000000000000000008152506040518060400160405280600381526020017f47484300000000000000000000000000000000000000000000000000000000008152508160009080519060200190620000cb92919062000204565b508060019080519060200190620000e492919062000204565b505050620001326040518060400160405280601c81526020017f54686973206973206d7920474843204e465420636f6e74726163742e000000008152506200013860201b62000c7b1760201c565b620003e1565b620001d8816040516024016200014f9190620002f5565b6040516020818303038152906040527f41304fac000000000000000000000000000000000000000000000000000000007bffffffffffffffffffffffffffffffffffffffffffffffffffffffff19166020820180517bffffffffffffffffffffffffffffffffffffffffffffffffffffffff8381831617835250505050620001db60201b60201c565b50565b60008151905060006a636f6e736f6c652e6c6f679050602083016000808483855afa5050505050565b82805462000212906200036b565b90600052602060002090601f01602090048101928262000236576000855562000282565b82601f106200025157805160ff191683800117855562000282565b8280016001018555821562000282579182015b828111156200028157825182559160200191906001019062000264565b5b50905062000291919062000295565b5090565b5b80821115620002b057600081600090555060010162000296565b5090565b6000620002c18262000319565b620002cd818562000324565b9350620002df81856020860162000335565b620002ea81620003d0565b840191505092915050565b60006020820190508181036000830152620003118184620002b4565b905092915050565b600081519050919050565b600082825260208201905092915050565b60005b838110156200035557808201518184015260208101905062000338565b8381111562000365576000848401525b50505050565b600060028204905060018216806200038457607f821691505b602082108114156200039b576200039a620003a1565b5b50919050565b7f4e487b7100000000000000000000000000000000000000000000000000000000600052602260045260246000fd5b6000601f19601f8301169050919050565b61323a80620003f16000396000f3fe608060405234801561001057600080fd5b50600436106100ea5760003560e01c806370a082311161008c578063b88d4fde11610066578063b88d4fde1461025b578063b936593014610277578063c87b56dd14610281578063e985e9c5146102b1576100ea565b806370a08231146101f157806395d89b4114610221578063a22cb4651461023f576100ea565b8063095ea7b3116100c8578063095ea7b31461016d57806323b872dd1461018957806342842e0e146101a55780636352211e146101c1576100ea565b806301ffc9a7146100ef57806306fdde031461011f578063081812fc1461013d575b600080fd5b61010960048036038101906101049190612048565b6102e1565b6040516101169190612aae565b60405180910390f35b6101276103c3565b6040516101349190612ac9565b60405180910390f35b6101576004803603810190610152919061209a565b610455565b6040516101649190612a1e565b60405180910390f35b6101876004803603810190610182919061200c565b6104da565b005b6101a3600480360381019061019e9190611f06565b6105f2565b005b6101bf60048036038101906101ba9190611f06565b610652565b005b6101db60048036038101906101d6919061209a565b610672565b6040516101e89190612a1e565b60405180910390f35b61020b60048036038101906102069190611ea1565b610724565b6040516102189190612d29565b60405180910390f35b6102296107dc565b6040516102369190612ac9565b60405180910390f35b61025960048036038101906102549190611fd0565b61086e565b005b61027560048036038101906102709190611f55565b610884565b005b61027f6108e6565b005b61029b6004803603810190610296919061209a565b610a95565b6040516102a89190612ac9565b60405180910390f35b6102cb60048036038101906102c69190611eca565b610be7565b6040516102d89190612aae565b60405180910390f35b60007f80ac58cd000000000000000000000000000000000000000000000000000000007bffffffffffffffffffffffffffffffffffffffffffffffffffffffff1916827bffffffffffffffffffffffffffffffffffffffffffffffffffffffff191614806103ac57507f5b5e139f000000000000000000000000000000000000000000000000000000007bffffffffffffffffffffffffffffffffffffffffffffffffffffffff1916827bffffffffffffffffffffffffffffffffffffffffffffffffffffffff1916145b806103bc57506103bb82610d14565b5b9050919050565b6060600080546103d290612fc8565b80601f01602080910402602001604051908101604052809291908181526020018280546103fe90612fc8565b801561044b5780601f106104205761010080835404028352916020019161044b565b820191906000526020600020905b81548152906001019060200180831161042e57829003601f168201915b5050505050905090565b600061046082610d7e565b61049f576040517f08c379a000000000000000000000000000000000000000000000000000000000815260040161049690612c89565b60405180910390fd5b6004600083815260200190815260200160002060009054906101000a900473ffffffffffffffffffffffffffffffffffffffff169050919050565b60006104e582610672565b90508073ffffffffffffffffffffffffffffffffffffffff168373ffffffffffffffffffffffffffffffffffffffff161415610556576040517f08c379a000000000000000000000000000000000000000000000000000000000815260040161054d90612ce9565b60405180910390fd5b8073ffffffffffffffffffffffffffffffffffffffff16610575610dea565b73ffffffffffffffffffffffffffffffffffffffff1614806105a457506105a38161059e610dea565b610be7565b5b6105e3576040517f08c379a00000000000000000000000000000000000000000000000000000000081526004016105da90612bc9565b60405180910390fd5b6105ed8383610df2565b505050565b6106036105fd610dea565b82610eab565b610642576040517f08c379a000000000000000000000000000000000000000000000000000000000815260040161063990612d09565b60405180910390fd5b61064d838383610f89565b505050565b61066d83838360405180602001604052806000815250610884565b505050565b6000806002600084815260200190815260200160002060009054906101000a900473ffffffffffffffffffffffffffffffffffffffff169050600073ffffffffffffffffffffffffffffffffffffffff168173ffffffffffffffffffffffffffffffffffffffff16141561071b576040517f08c379a000000000000000000000000000000000000000000000000000000000815260040161071290612c09565b60405180910390fd5b80915050919050565b60008073ffffffffffffffffffffffffffffffffffffffff168273ffffffffffffffffffffffffffffffffffffffff161415610795576040517f08c379a000000000000000000000000000000000000000000000000000000000815260040161078c90612be9565b60405180910390fd5b600360008373ffffffffffffffffffffffffffffffffffffffff1673ffffffffffffffffffffffffffffffffffffffff168152602001908152602001600020549050919050565b6060600180546107eb90612fc8565b80601f016020809104026020016040519081016040528092919081815260200182805461081790612fc8565b80156108645780601f1061083957610100808354040283529160200191610864565b820191906000526020600020905b81548152906001019060200180831161084757829003601f168201915b5050505050905090565b610880610879610dea565b83836111e5565b5050565b61089561088f610dea565b83610eab565b6108d4576040517f08c379a00000000000000000000000000000000000000000000000000000000081526004016108cb90612d09565b60405180910390fd5b6108e084848484611352565b50505050565b60006108f260076113ae565b9050600060086040516020016109089190612996565b6040516020818303038152906040529050600061094b610927836113bc565b60405160200161093791906129cf565b6040516020818303038152906040526113bc565b905060008160405160200161096091906129fc565b60405160208183030381529060405290506109af6040518060400160405280601581526020017f0a2d2d2d2d2d2d2d2d2d2d2d2d2d2d2d2d2d2d2d2d0000000000000000000000815250610c7b565b6109d7816040516020016109c391906129ad565b604051602081830303815290604052610c7b565b610a156040518060400160405280601581526020017f2d2d2d2d2d2d2d2d2d2d2d2d2d2d2d2d2d2d2d2d0a0000000000000000000000815250610c7b565b610a1f338561157a565b610a298482611598565b610a4c6040518060600160405280602781526020016131de60279139853361160c565b610a5660076116ab565b7f4d092129ef480f96833525ebe37bc375bbeb6c2130cd180be19bcf45068b49f63385604051610a87929190612a85565b60405180910390a150505050565b6060610aa082610d7e565b610adf576040517f08c379a0000000000000000000000000000000000000000000000000000000008152600401610ad690612c69565b60405180910390fd5b6000600660008481526020019081526020016000208054610aff90612fc8565b80601f0160208091040260200160405190810160405280929190818152602001828054610b2b90612fc8565b8015610b785780601f10610b4d57610100808354040283529160200191610b78565b820191906000526020600020905b815481529060010190602001808311610b5b57829003601f168201915b505050505090506000610b896116c1565b9050600081511415610b9f578192505050610be2565b600082511115610bd4578082604051602001610bbc929190612972565b60405160208183030381529060405292505050610be2565b610bdd846116d8565b925050505b919050565b6000600560008473ffffffffffffffffffffffffffffffffffffffff1673ffffffffffffffffffffffffffffffffffffffff16815260200190815260200160002060008373ffffffffffffffffffffffffffffffffffffffff1673ffffffffffffffffffffffffffffffffffffffff16815260200190815260200160002060009054906101000a900460ff16905092915050565b610d1181604051602401610c8f9190612ac9565b6040516020818303038152906040527f41304fac000000000000000000000000000000000000000000000000000000007bffffffffffffffffffffffffffffffffffffffffffffffffffffffff19166020820180517bffffffffffffffffffffffffffffffffffffffffffffffffffffffff838183161783525050505061177f565b50565b60007f01ffc9a7000000000000000000000000000000000000000000000000000000007bffffffffffffffffffffffffffffffffffffffffffffffffffffffff1916827bffffffffffffffffffffffffffffffffffffffffffffffffffffffff1916149050919050565b60008073ffffffffffffffffffffffffffffffffffffffff166002600084815260200190815260200160002060009054906101000a900473ffffffffffffffffffffffffffffffffffffffff1673ffffffffffffffffffffffffffffffffffffffff1614159050919050565b600033905090565b816004600083815260200190815260200160002060006101000a81548173ffffffffffffffffffffffffffffffffffffffff021916908373ffffffffffffffffffffffffffffffffffffffff160217905550808273ffffffffffffffffffffffffffffffffffffffff16610e6583610672565b73ffffffffffffffffffffffffffffffffffffffff167f8c5be1e5ebec7d5bd14f71427d1e84f3dd0314c0f7b2291e5b200ac8c7c3b92560405160405180910390a45050565b6000610eb682610d7e565b610ef5576040517f08c379a0000000000000000000000000000000000000000000000000000000008152600401610eec90612ba9565b60405180910390fd5b6000610f0083610672565b90508073ffffffffffffffffffffffffffffffffffffffff168473ffffffffffffffffffffffffffffffffffffffff161480610f6f57508373ffffffffffffffffffffffffffffffffffffffff16610f5784610455565b73ffffffffffffffffffffffffffffffffffffffff16145b80610f805750610f7f8185610be7565b5b91505092915050565b8273ffffffffffffffffffffffffffffffffffffffff16610fa982610672565b73ffffffffffffffffffffffffffffffffffffffff1614610fff576040517f08c379a0000000000000000000000000000000000000000000000000000000008152600401610ff690612ca9565b60405180910390fd5b600073ffffffffffffffffffffffffffffffffffffffff168273ffffffffffffffffffffffffffffffffffffffff16141561106f576040517f08c379a000000000000000000000000000000000000000000000000000000000815260040161106690612b69565b60405180910390fd5b61107a8383836117a8565b611085600082610df2565b6001600360008573ffffffffffffffffffffffffffffffffffffffff1673ffffffffffffffffffffffffffffffffffffffff16815260200190815260200160002060008282546110d59190612ede565b925050819055506001600360008473ffffffffffffffffffffffffffffffffffffffff1673ffffffffffffffffffffffffffffffffffffffff168152602001908152602001600020600082825461112c9190612dfd565b92505081905550816002600083815260200190815260200160002060006101000a81548173ffffffffffffffffffffffffffffffffffffffff021916908373ffffffffffffffffffffffffffffffffffffffff160217905550808273ffffffffffffffffffffffffffffffffffffffff168473ffffffffffffffffffffffffffffffffffffffff167fddf252ad1be2c89b69c2b068fc378daa952ba7f163c4a11628f55a4df523b3ef60405160405180910390a4505050565b8173ffffffffffffffffffffffffffffffffffffffff168373ffffffffffffffffffffffffffffffffffffffff161415611254576040517f08c379a000000000000000000000000000000000000000000000000000000000815260040161124b90612b89565b60405180910390fd5b80600560008573ffffffffffffffffffffffffffffffffffffffff1673ffffffffffffffffffffffffffffffffffffffff16815260200190815260200160002060008473ffffffffffffffffffffffffffffffffffffffff1673ffffffffffffffffffffffffffffffffffffffff16815260200190815260200160002060006101000a81548160ff0219169083151502179055508173ffffffffffffffffffffffffffffffffffffffff168373ffffffffffffffffffffffffffffffffffffffff167f17307eab39ab6107e8899845ad3d59bd9653f200f220920489ca2b5937696c31836040516113459190612aae565b60405180910390a3505050565b61135d848484610f89565b611369848484846117ad565b6113a8576040517f08c379a000000000000000000000000000000000000000000000000000000000815260040161139f90612b29565b60405180910390fd5b50505050565b600081600001549050919050565b606060008251905060008114156113e55760405180602001604052806000815250915050611575565b600060036002836113f69190612dfd565b6114009190612e53565b600461140c9190612e84565b9050600060208261141d9190612dfd565b67ffffffffffffffff81111561145c577f4e487b7100000000000000000000000000000000000000000000000000000000600052604160045260246000fd5b6040519080825280601f01601f19166020018201604052801561148e5781602001600182028036833780820191505090505b509050600060405180606001604052806040815260200161319e604091399050600181016020830160005b868110156115325760038101905062ffffff818a015116603f8160121c168401518060081b905060ff603f83600c1c1686015116810190508060081b905060ff603f8360061c1686015116810190508060081b905060ff603f831686015116810190508060e01b905080845260048401935050506114b9565b50600386066001811461154c576002811461155c57611567565b613d3d60f01b6002830352611567565b603d60f81b60018303525b508484525050819450505050505b919050565b611594828260405180602001604052806000815250611944565b5050565b6115a182610d7e565b6115e0576040517f08c379a00000000000000000000000000000000000000000000000000000000081526004016115d790612c29565b60405180910390fd5b80600660008481526020019081526020016000209080519060200190611607929190611d2d565b505050565b6116a683838360405160240161162493929190612aeb565b6040516020818303038152906040527fe3849f79000000000000000000000000000000000000000000000000000000007bffffffffffffffffffffffffffffffffffffffffffffffffffffffff19166020820180517bffffffffffffffffffffffffffffffffffffffffffffffffffffffff838183161783525050505061177f565b505050565b6001816000016000828254019250508190555050565b606060405180602001604052806000815250905090565b60606116e382610d7e565b611722576040517f08c379a000000000000000000000000000000000000000000000000000000000815260040161171990612cc9565b60405180910390fd5b600061172c6116c1565b9050600081511161174c5760405180602001604052806000815250611777565b806117568461199f565b604051602001611767929190612972565b6040516020818303038152906040525b915050919050565b60008151905060006a636f6e736f6c652e6c6f679050602083016000808483855afa5050505050565b505050565b60006117ce8473ffffffffffffffffffffffffffffffffffffffff16611b4c565b15611937578373ffffffffffffffffffffffffffffffffffffffff1663150b7a026117f7610dea565b8786866040518563ffffffff1660e01b81526004016118199493929190612a39565b602060405180830381600087803b15801561183357600080fd5b505af192505050801561186457506040513d601f19601f820116820180604052508101906118619190612071565b60015b6118e7573d8060008114611894576040519150601f19603f3d011682016040523d82523d6000602084013e611899565b606091505b506000815114156118df576040517f08c379a00000000000000000000000000000000000000000000000000000000081526004016118d690612b29565b60405180910390fd5b805181602001fd5b63150b7a0260e01b7bffffffffffffffffffffffffffffffffffffffffffffffffffffffff1916817bffffffffffffffffffffffffffffffffffffffffffffffffffffffff19161491505061193c565b600190505b949350505050565b61194e8383611b5f565b61195b60008484846117ad565b61199a576040517f08c379a000000000000000000000000000000000000000000000000000000000815260040161199190612b29565b60405180910390fd5b505050565b606060008214156119e7576040518060400160405280600181526020017f30000000000000000000000000000000000000000000000000000000000000008152509050611b47565b600082905060005b60008214611a19578080611a0290612ffa565b915050600a82611a129190612e53565b91506119ef565b60008167ffffffffffffffff811115611a5b577f4e487b7100000000000000000000000000000000000000000000000000000000600052604160045260246000fd5b6040519080825280601f01601f191660200182016040528015611a8d5781602001600182028036833780820191505090505b5090505b60008514611b4057600182611aa69190612ede565b9150600a85611ab59190613043565b6030611ac19190612dfd565b60f81b818381518110611afd577f4e487b7100000000000000000000000000000000000000000000000000000000600052603260045260246000fd5b60200101907effffffffffffffffffffffffffffffffffffffffffffffffffffffffffffff1916908160001a905350600a85611b399190612e53565b9450611a91565b8093505050505b919050565b600080823b905060008111915050919050565b600073ffffffffffffffffffffffffffffffffffffffff168273ffffffffffffffffffffffffffffffffffffffff161415611bcf576040517f08c379a0000000000000000000000000000000000000000000000000000000008152600401611bc690612c49565b60405180910390fd5b611bd881610d7e565b15611c18576040517f08c379a0000000000000000000000000000000000000000000000000000000008152600401611c0f90612b49565b60405180910390fd5b611c24600083836117a8565b6001600360008473ffffffffffffffffffffffffffffffffffffffff1673ffffffffffffffffffffffffffffffffffffffff1681526020019081526020016000206000828254611c749190612dfd565b92505081905550816002600083815260200190815260200160002060006101000a81548173ffffffffffffffffffffffffffffffffffffffff021916908373ffffffffffffffffffffffffffffffffffffffff160217905550808273ffffffffffffffffffffffffffffffffffffffff16600073ffffffffffffffffffffffffffffffffffffffff167fddf252ad1be2c89b69c2b068fc378daa952ba7f163c4a11628f55a4df523b3ef60405160405180910390a45050565b828054611d3990612fc8565b90600052602060002090601f016020900481019282611d5b5760008555611da2565b82601f10611d7457805160ff1916838001178555611da2565b82800160010185558215611da2579182015b82811115611da1578251825591602001919060010190611d86565b5b509050611daf9190611db3565b5090565b5b80821115611dcc576000816000905550600101611db4565b5090565b6000611de3611dde84612d75565b612d44565b905082815260208101848484011115611dfb57600080fd5b611e06848285612f86565b509392505050565b600081359050611e1d81613141565b92915050565b600081359050611e3281613158565b92915050565b600081359050611e478161316f565b92915050565b600081519050611e5c8161316f565b92915050565b600082601f830112611e7357600080fd5b8135611e83848260208601611dd0565b91505092915050565b600081359050611e9b81613186565b92915050565b600060208284031215611eb357600080fd5b6000611ec184828501611e0e565b91505092915050565b60008060408385031215611edd57600080fd5b6000611eeb85828601611e0e565b9250506020611efc85828601611e0e565b9150509250929050565b600080600060608486031215611f1b57600080fd5b6000611f2986828701611e0e565b9350506020611f3a86828701611e0e565b9250506040611f4b86828701611e8c565b9150509250925092565b60008060008060808587031215611f6b57600080fd5b6000611f7987828801611e0e565b9450506020611f8a87828801611e0e565b9350506040611f9b87828801611e8c565b925050606085013567ffffffffffffffff811115611fb857600080fd5b611fc487828801611e62565b91505092959194509250565b60008060408385031215611fe357600080fd5b6000611ff185828601611e0e565b925050602061200285828601611e23565b9150509250929050565b6000806040838503121561201f57600080fd5b600061202d85828601611e0e565b925050602061203e85828601611e8c565b9150509250929050565b60006020828403121561205a57600080fd5b600061206884828501611e38565b91505092915050565b60006020828403121561208357600080fd5b600061209184828501611e4d565b91505092915050565b6000602082840312156120ac57600080fd5b60006120ba84828501611e8c565b91505092915050565b6120cc81612f12565b82525050565b6120db81612f24565b82525050565b60006120ec82612dba565b6120f68185612dd0565b9350612106818560208601612f95565b61210f81613130565b840191505092915050565b600061212582612dc5565b61212f8185612de1565b935061213f818560208601612f95565b61214881613130565b840191505092915050565b600061215e82612dc5565b6121688185612df2565b9350612178818560208601612f95565b80840191505092915050565b6000815461219181612fc8565b61219b8186612df2565b945060018216600081146121b657600181146121c7576121fa565b60ff198316865281860193506121fa565b6121d085612da5565b60005b838110156121f2578154818901526001820191506020810190506121d3565b838801955050505b50505092915050565b6000612210602583612df2565b91507f68747470733a2f2f6e6674707265766965772e30786465762e636f6465732f3f60008301527f636f64653d0000000000000000000000000000000000000000000000000000006020830152602582019050919050565b6000612276606083612df2565b91507f7b226e616d65223a20224748414e41222c20226465736372697074696f6e223a60008301527f202254686520556e69746564205468726565204c696f6e732e222c2022696d6160208301527f6765223a2022646174613a696d6167652f7376672b786d6c3b6261736536342c6040830152606082019050919050565b6000612302603283612de1565b91507f4552433732313a207472616e7366657220746f206e6f6e20455243373231526560008301527f63656976657220696d706c656d656e74657200000000000000000000000000006020830152604082019050919050565b6000612368601c83612de1565b91507f4552433732313a20746f6b656e20616c7265616479206d696e746564000000006000830152602082019050919050565b60006123a8602483612de1565b91507f4552433732313a207472616e7366657220746f20746865207a65726f2061646460008301527f72657373000000000000000000000000000000000000000000000000000000006020830152604082019050919050565b600061240e601983612de1565b91507f4552433732313a20617070726f766520746f2063616c6c6572000000000000006000830152602082019050919050565b600061244e602c83612de1565b91507f4552433732313a206f70657261746f7220717565727920666f72206e6f6e657860008301527f697374656e7420746f6b656e00000000000000000000000000000000000000006020830152604082019050919050565b60006124b4603883612de1565b91507f4552433732313a20617070726f76652063616c6c6572206973206e6f74206f7760008301527f6e6572206e6f7220617070726f76656420666f7220616c6c00000000000000006020830152604082019050919050565b600061251a602a83612de1565b91507f4552433732313a2062616c616e636520717565727920666f7220746865207a6560008301527f726f2061646472657373000000000000000000000000000000000000000000006020830152604082019050919050565b6000612580602983612de1565b91507f4552433732313a206f776e657220717565727920666f72206e6f6e657869737460008301527f656e7420746f6b656e00000000000000000000000000000000000000000000006020830152604082019050919050565b60006125e6602e83612de1565b91507f45524337323155524953746f726167653a2055524920736574206f66206e6f6e60008301527f6578697374656e7420746f6b656e0000000000000000000000000000000000006020830152604082019050919050565b600061264c600283612df2565b91507f227d0000000000000000000000000000000000000000000000000000000000006000830152600282019050919050565b600061268c602083612de1565b91507f4552433732313a206d696e7420746f20746865207a65726f20616464726573736000830152602082019050919050565b60006126cc603183612de1565b91507f45524337323155524953746f726167653a2055524920717565727920666f722060008301527f6e6f6e6578697374656e7420746f6b656e0000000000000000000000000000006020830152604082019050919050565b6000612732602c83612de1565b91507f4552433732313a20617070726f76656420717565727920666f72206e6f6e657860008301527f697374656e7420746f6b656e00000000000000000000000000000000000000006020830152604082019050919050565b6000612798602983612de1565b91507f4552433732313a207472616e73666572206f6620746f6b656e2074686174206960008301527f73206e6f74206f776e00000000000000000000000000000000000000000000006020830152604082019050919050565b60006127fe602f83612de1565b91507f4552433732314d657461646174613a2055524920717565727920666f72206e6f60008301527f6e6578697374656e7420746f6b656e00000000000000000000000000000000006020830152604082019050919050565b6000612864602183612de1565b91507f4552433732313a20617070726f76616c20746f2063757272656e74206f776e6560008301527f72000000000000000000000000000000000000000000000000000000000000006020830152604082019050919050565b60006128ca601d83612df2565b91507f646174613a6170706c69636174696f6e2f6a736f6e3b6261736536342c0000006000830152601d82019050919050565b600061290a603183612de1565b91507f4552433732313a207472616e736665722063616c6c6572206973206e6f74206f60008301527f776e6572206e6f7220617070726f7665640000000000000000000000000000006020830152604082019050919050565b61296c81612f7c565b82525050565b600061297e8285612153565b915061298a8284612153565b91508190509392505050565b60006129a28284612184565b915081905092915050565b60006129b882612203565b91506129c48284612153565b915081905092915050565b60006129da82612269565b91506129e68284612153565b91506129f18261263f565b915081905092915050565b6000612a07826128bd565b9150612a138284612153565b915081905092915050565b6000602082019050612a3360008301846120c3565b92915050565b6000608082019050612a4e60008301876120c3565b612a5b60208301866120c3565b612a686040830185612963565b8181036060830152612a7a81846120e1565b905095945050505050565b6000604082019050612a9a60008301856120c3565b612aa76020830184612963565b9392505050565b6000602082019050612ac360008301846120d2565b92915050565b60006020820190508181036000830152612ae3818461211a565b905092915050565b60006060820190508181036000830152612b05818661211a565b9050612b146020830185612963565b612b2160408301846120c3565b949350505050565b60006020820190508181036000830152612b42816122f5565b9050919050565b60006020820190508181036000830152612b628161235b565b9050919050565b60006020820190508181036000830152612b828161239b565b9050919050565b60006020820190508181036000830152612ba281612401565b9050919050565b60006020820190508181036000830152612bc281612441565b9050919050565b60006020820190508181036000830152612be2816124a7565b9050919050565b60006020820190508181036000830152612c028161250d565b9050919050565b60006020820190508181036000830152612c2281612573565b9050919050565b60006020820190508181036000830152612c42816125d9565b9050919050565b60006020820190508181036000830152612c628161267f565b9050919050565b60006020820190508181036000830152612c82816126bf565b9050919050565b60006020820190508181036000830152612ca281612725565b9050919050565b60006020820190508181036000830152612cc28161278b565b9050919050565b60006020820190508181036000830152612ce2816127f1565b9050919050565b60006020820190508181036000830152612d0281612857565b9050919050565b60006020820190508181036000830152612d22816128fd565b9050919050565b6000602082019050612d3e6000830184612963565b92915050565b6000604051905081810181811067ffffffffffffffff82111715612d6b57612d6a613101565b5b8060405250919050565b600067ffffffffffffffff821115612d9057612d8f613101565b5b601f19601f8301169050602081019050919050565b60008190508160005260206000209050919050565b600081519050919050565b600081519050919050565b600082825260208201905092915050565b600082825260208201905092915050565b600081905092915050565b6000612e0882612f7c565b9150612e1383612f7c565b9250827fffffffffffffffffffffffffffffffffffffffffffffffffffffffffffffffff03821115612e4857612e47613074565b5b828201905092915050565b6000612e5e82612f7c565b9150612e6983612f7c565b925082612e7957612e786130a3565b5b828204905092915050565b6000612e8f82612f7c565b9150612e9a83612f7c565b9250817fffffffffffffffffffffffffffffffffffffffffffffffffffffffffffffffff0483118215151615612ed357612ed2613074565b5b828202905092915050565b6000612ee982612f7c565b9150612ef483612f7c565b925082821015612f0757612f06613074565b5b828203905092915050565b6000612f1d82612f5c565b9050919050565b60008115159050919050565b60007fffffffff0000000000000000000000000000000000000000000000000000000082169050919050565b600073ffffffffffffffffffffffffffffffffffffffff82169050919050565b6000819050919050565b82818337600083830152505050565b60005b83811015612fb3578082015181840152602081019050612f98565b83811115612fc2576000848401525b50505050565b60006002820490506001821680612fe057607f821691505b60208210811415612ff457612ff36130d2565b5b50919050565b600061300582612f7c565b91507fffffffffffffffffffffffffffffffffffffffffffffffffffffffffffffffff82141561303857613037613074565b5b600182019050919050565b600061304e82612f7c565b915061305983612f7c565b925082613069576130686130a3565b5b828206905092915050565b7f4e487b7100000000000000000000000000000000000000000000000000000000600052601160045260246000fd5b7f4e487b7100000000000000000000000000000000000000000000000000000000600052601260045260246000fd5b7f4e487b7100000000000000000000000000000000000000000000000000000000600052602260045260246000fd5b7f4e487b7100000000000000000000000000000000000000000000000000000000600052604160045260246000fd5b6000601f19601f8301169050919050565b61314a81612f12565b811461315557600080fd5b50565b61316181612f24565b811461316c57600080fd5b50565b61317881612f30565b811461318357600080fd5b50565b61318f81612f7c565b811461319a57600080fd5b5056fe4142434445464748494a4b4c4d4e4f505152535455565758595a6162636465666768696a6b6c6d6e6f707172737475767778797a303132333435363738392b2f416e204e4654207769746820494420257320686173206265656e206d696e74656420746f202573a26469706673582212208a16b838a3e0777e44908d33d91d8b6e17f2ab5de68ba20b9fae5d1fd5d6363264736f6c63430008000033203c73766720786d6c6e733d22687474703a2f2f7777772e77332e6f72672f323030302f737667222069643d22666c61672d69636f6e732d6768222076696577426f783d223020302036343020343830223e203c706174682066696c6c3d22233030366233662220643d224d302030683634307634383048307a222f3e3c706174682066696c6c3d22236663643131362220643d224d302030683634307633323048307a222f3e20203c706174682066696c6c3d22236365313132362220643d224d302030683634307631363048307a222f3e20203c7061746820643d226d33323020313630203532203136302d3133362e312d39382e39483430344c323638203332307a222f3e20203c2f7376673e20",
  "linkReferences": {},
  "deployedLinkReferences": {}
}